{
  "abi": [
    {
      "inputs": [],
      "stateMutability": "nonpayable",
      "type": "constructor"
    },
    {
      "inputs": [
        {
          "internalType": "address",
          "name": "",
          "type": "address"
        }
      ],
      "name": "accuracy",
      "outputs": [
        {
          "internalType": "uint32",
          "name": "",
          "type": "uint32"
        }
      ],
      "stateMutability": "view",
      "type": "function"
    },
    {
      "inputs": [
        {
          "internalType": "address",
          "name": "",
          "type": "address"
        }
      ],
      "name": "attempts",
      "outputs": [
        {
          "internalType": "uint32",
          "name": "",
          "type": "uint32"
        }
      ],
      "stateMutability": "view",
      "type": "function"
    },
    {
      "inputs": [
        {
          "internalType": "uint16",
          "name": "sessionIndex",
          "type": "uint16"
        },
        {
          "internalType": "string",
          "name": "prediction",
          "type": "string"
        }
      ],
      "name": "claimAccuracy",
      "outputs": [],
      "stateMutability": "nonpayable",
      "type": "function"
    },
    {
      "inputs": [
        {
          "internalType": "uint16",
          "name": "sessionIndex",
          "type": "uint16"
        }
      ],
      "name": "getSession",
      "outputs": [
        {
          "components": [
            {
              "internalType": "bytes32",
              "name": "targetCommitment",
              "type": "bytes32"
            },
            {
              "internalType": "string",
              "name": "target",
              "type": "string"
            },
            {
              "internalType": "uint256",
              "name": "startedAt",
              "type": "uint256"
            },
            {
              "internalType": "address",
              "name": "tasker",
              "type": "address"
            }
          ],
          "internalType": "struct Session",
          "name": "s",
          "type": "tuple"
        }
      ],
      "stateMutability": "view",
      "type": "function"
    },
    {
      "inputs": [],
      "name": "lastSessionIndex",
      "outputs": [
        {
          "internalType": "uint16",
          "name": "",
          "type": "uint16"
        }
      ],
      "stateMutability": "view",
      "type": "function"
    },
    {
      "inputs": [
        {
          "internalType": "bytes32",
          "name": "",
          "type": "bytes32"
        }
      ],
      "name": "predictions",
      "outputs": [
        {
          "internalType": "string",
          "name": "",
          "type": "string"
        }
      ],
      "stateMutability": "view",
      "type": "function"
    },
    {
      "inputs": [
        {
          "internalType": "uint16",
          "name": "sessionIndex",
          "type": "uint16"
        },
        {
          "internalType": "string",
          "name": "salt",
          "type": "string"
        },
        {
          "internalType": "string",
          "name": "target",
          "type": "string"
        }
      ],
      "name": "revealTarget",
      "outputs": [],
      "stateMutability": "nonpayable",
      "type": "function"
    },
    {
      "inputs": [
        {
          "internalType": "uint16",
          "name": "sessionIndex",
          "type": "uint16"
        },
        {
          "internalType": "bytes32",
          "name": "commitment",
          "type": "bytes32"
        }
      ],
      "name": "startSession",
      "outputs": [],
      "stateMutability": "nonpayable",
      "type": "function"
    },
    {
      "inputs": [
        {
          "internalType": "uint16",
          "name": "sessionIndex",
          "type": "uint16"
        },
        {
          "internalType": "string",
          "name": "prediction",
          "type": "string"
        }
      ],
      "name": "submitPrediction",
      "outputs": [],
      "stateMutability": "nonpayable",
      "type": "function"
    }
  ],
  "bytecode": {
    "object": "0x608060405234801561001057600080fd5b506001805461ffff19169055610f588061002b6000396000f3fe608060405234801561001057600080fd5b50600436106100935760003560e01c80635b7803dd116100665780635b7803dd146101065780635d9eaeaf14610119578063672657be146101395780636f82eb0214610174578063dca69ea81461019a57600080fd5b806304bacff41461009857806309d8ea6a146100be57806335873125146100de5780634c04657b146100f3575b600080fd5b6001546100a69061ffff1681565b60405161ffff90911681526020015b60405180910390f35b6100d16100cc3660046109d0565b6101ad565b6040516100b59190610a3f565b6100f16100ec366004610a90565b6102ae565b005b6100f1610101366004610b03565b610427565b6100f1610114366004610b56565b6104b6565b61012c610127366004610bd7565b6105cc565b6040516100b59190610bf0565b61015f610147366004610c03565b60046020526000908152604090205463ffffffff1681565b60405163ffffffff90911681526020016100b5565b61015f610182366004610c03565b60036020526000908152604090205463ffffffff1681565b6100f16101a8366004610b03565b610666565b6040805160808101825260008082526060602083018190529282018190529181019190915261ffff82166000908152602081815260409182902082516080810190935280548352600181018054919284019161020890610c2c565b80601f016020809104026020016040519081016040528092919081815260200182805461023490610c2c565b80156102815780601f1061025657610100808354040283529160200191610281565b820191906000526020600020905b81548152906001019060200180831161026457829003601f168201915b5050509183525050600282015460208201526003909101546001600160a01b031660409091015292915050565b600180546000916102c39161ffff1690610c7c565b90508261ffff168161ffff16146103215760405162461bcd60e51b815260206004820152601860248201527f556e65787065637465642073657373696f6e20696e646578000000000000000060448201526064015b60405180910390fd5b61ffff8316600090815260208190526040902054156103825760405162461bcd60e51b815260206004820152601760248201527f53657373696f6e20616c726561647920737461727465640000000000000000006044820152606401610318565b604080516020808201835260008083528351608081018552868152808301848152428287015233606083015261ffff891683529282905293902083518155905191929182919060018201906103d79082610d07565b5060408201516002820155606090910151600390910180546001600160a01b0319166001600160a01b0390921691909117905550506001805461ffff191661ffff94909416939093179092555050565b6040805161ffff85166020808301919091523382840152825180830384018152606090920183528151918101919091206000818152600290925291902061046f838583610dc7565b50336000908152600460205260408120805463ffffffff169161049183610e88565b91906101000a81548163ffffffff021916908363ffffffff1602179055505050505050565b61ffff8516600090815260208190526040902060038101546001600160a01b0316331461052f5760405162461bcd60e51b815260206004820152602160248201527f4f6e6c7920746865207461736b65722063616e2072657665616c2074617267656044820152601d60fa1b6064820152608401610318565b6000858585856040516020016105489493929190610ed4565b604051602081830303815290604052805190602001209050808260000154146105b35760405162461bcd60e51b815260206004820152601d60248201527f54617267657420636f6d6d69746d656e7473206d757374206d617463680000006044820152606401610318565b600182016105c2848683610dc7565b5050505050505050565b600260205260009081526040902080546105e590610c2c565b80601f016020809104026020016040519081016040528092919081815260200182805461061190610c2c565b801561065e5780601f106106335761010080835404028352916020019161065e565b820191906000526020600020905b81548152906001019060200180831161064157829003601f168201915b505050505081565b6040805161ffff85166020808301919091523382840152825180830384018152606090920183528151918101919091206000818152600290925291812080546106ae90610c2c565b80601f01602080910402602001604051908101604052809291908181526020018280546106da90610c2c565b80156107275780601f106106fc57610100808354040283529160200191610727565b820191906000526020600020905b81548152906001019060200180831161070a57829003601f168201915b505050505090506000816040516020016107419190610bf0565b60405160208183030381529060405280519060200120858560405160200161076a929190610f06565b60405160208183030381529060405280519060200120149050806107e85760405162461bcd60e51b815260206004820152602f60248201527f43616e6e6f7420636c61696d416363757261637920776974682064696666657260448201526e696e6720636f6d6d69746d656e747360881b6064820152608401610318565b61ffff861660009081526020818152604080832081516080810190925280548252600181018054929391929184019161082090610c2c565b80601f016020809104026020016040519081016040528092919081815260200182805461084c90610c2c565b80156108995780601f1061086e57610100808354040283529160200191610899565b820191906000526020600020905b81548152906001019060200180831161087c57829003601f168201915b505050918352505060028201546020808301919091526003909201546001600160a01b0316604090910152810151519091506000036109105760405162461bcd60e51b815260206004820152601360248201527215185c99d95d081b9bdd081c995d99585b1959606a1b6044820152606401610318565b600081602001516040516020016109279190610bf0565b604051602081830303815290604052805190602001208787604051602001610950929190610f06565b6040516020818303038152906040528051906020012014905080156105c257336000908152600360205260408120805463ffffffff169161099083610e88565b91906101000a81548163ffffffff021916908363ffffffff160217905550505050505050505050565b803561ffff811681146109cb57600080fd5b919050565b6000602082840312156109e257600080fd5b6109eb826109b9565b9392505050565b6000815180845260005b81811015610a18576020818501810151868301820152016109fc565b81811115610a2a576000602083870101525b50601f01601f19169290920160200192915050565b60208152815160208201526000602083015160806040840152610a6560a08401826109f2565b6040850151606085810191909152909401516001600160a01b03166080909301929092525090919050565b60008060408385031215610aa357600080fd5b610aac836109b9565b946020939093013593505050565b60008083601f840112610acc57600080fd5b50813567ffffffffffffffff811115610ae457600080fd5b602083019150836020828501011115610afc57600080fd5b9250929050565b600080600060408486031215610b1857600080fd5b610b21846109b9565b9250602084013567ffffffffffffffff811115610b3d57600080fd5b610b4986828701610aba565b9497909650939450505050565b600080600080600060608688031215610b6e57600080fd5b610b77866109b9565b9450602086013567ffffffffffffffff80821115610b9457600080fd5b610ba089838a01610aba565b90965094506040880135915080821115610bb957600080fd5b50610bc688828901610aba565b969995985093965092949392505050565b600060208284031215610be957600080fd5b5035919050565b6020815260006109eb60208301846109f2565b600060208284031215610c1557600080fd5b81356001600160a01b03811681146109eb57600080fd5b600181811c90821680610c4057607f821691505b602082108103610c6057634e487b7160e01b600052602260045260246000fd5b50919050565b634e487b7160e01b600052601160045260246000fd5b600061ffff808316818516808303821115610c9957610c99610c66565b01949350505050565b634e487b7160e01b600052604160045260246000fd5b601f821115610d0257600081815260208120601f850160051c81016020861015610cdf5750805b601f850160051c820191505b81811015610cfe57828155600101610ceb565b5050505b505050565b815167ffffffffffffffff811115610d2157610d21610ca2565b610d3581610d2f8454610c2c565b84610cb8565b602080601f831160018114610d6a5760008415610d525750858301515b600019600386901b1c1916600185901b178555610cfe565b600085815260208120601f198616915b82811015610d9957888601518255948401946001909101908401610d7a565b5085821015610db75787850151600019600388901b60f8161c191681555b5050505050600190811b01905550565b67ffffffffffffffff831115610ddf57610ddf610ca2565b610df383610ded8354610c2c565b83610cb8565b6000601f841160018114610e275760008515610e0f5750838201355b600019600387901b1c1916600186901b178355610e81565b600083815260209020601f19861690835b82811015610e585786850135825560209485019460019092019101610e38565b5086821015610e755760001960f88860031b161c19848701351681555b505060018560011b0183555b5050505050565b600063ffffffff808316818103610ea157610ea1610c66565b6001019392505050565b81835281816020850137506000828201602090810191909152601f909101601f19169091010190565b604081526000610ee8604083018688610eab565b8281036020840152610efb818587610eab565b979650505050505050565b602081526000610f1a602083018486610eab565b94935050505056fea2646970667358221220ed61d6caf9f02ce1d67b35fce06e3adfb0e8cb573629ec5e70625fd2a61c653c64736f6c634300080f0033",
    "linkReferences": {}
  },
  "methodIdentifiers": {
    "accuracy(address)": "6f82eb02",
    "attempts(address)": "672657be",
    "claimAccuracy(uint16,string)": "dca69ea8",
    "getSession(uint16)": "09d8ea6a",
    "lastSessionIndex()": "04bacff4",
    "predictions(bytes32)": "5d9eaeaf",
    "revealTarget(uint16,string,string)": "5b7803dd",
    "startSession(uint16,bytes32)": "35873125",
    "submitPrediction(uint16,string)": "4c04657b"
  },
  "id": 6
}